{
  "_format": "hh-sol-artifact-1",
  "contractName": "Submissions",
  "sourceName": "contracts/Submissions.sol",
  "abi": [
    {
      "anonymous": false,
      "inputs": [
        {
          "indexed": false,
          "internalType": "address",
          "name": "recipient",
          "type": "address"
        },
        {
          "indexed": false,
          "internalType": "uint256",
          "name": "amount",
          "type": "uint256"
        }
      ],
      "name": "StartGame",
      "type": "event"
    },
    {
      "anonymous": false,
      "inputs": [
        {
          "components": [
            {
              "internalType": "uint256",
              "name": "id",
              "type": "uint256"
            },
            {
              "internalType": "string",
              "name": "game",
              "type": "string"
            },
            {
              "internalType": "string",
              "name": "answer",
              "type": "string"
            },
            {
              "internalType": "uint64",
              "name": "start",
              "type": "uint64"
            },
            {
              "internalType": "uint64",
              "name": "end",
              "type": "uint64"
            },
            {
              "internalType": "address",
              "name": "creator_address",
              "type": "address"
            },
            {
              "internalType": "uint256",
              "name": "created_at",
              "type": "uint256"
            }
          ],
          "indexed": false,
          "internalType": "struct Submissions.Submission",
          "name": "submission",
          "type": "tuple"
        }
      ],
      "name": "SubmissionAdded",
      "type": "event"
    },
    {
      "inputs": [
        {
          "internalType": "string",
          "name": "game",
          "type": "string"
        },
        {
          "internalType": "string",
          "name": "answer",
          "type": "string"
        },
        {
          "internalType": "uint64",
          "name": "start",
          "type": "uint64"
        },
        {
          "internalType": "uint64",
          "name": "end",
          "type": "uint64"
        }
      ],
      "name": "addSubmission",
      "outputs": [],
      "stateMutability": "nonpayable",
      "type": "function"
    },
    {
      "inputs": [],
      "name": "admission",
      "outputs": [],
      "stateMutability": "payable",
      "type": "function"
    },
    {
      "inputs": [
        {
          "internalType": "string",
          "name": "game",
          "type": "string"
        }
      ],
      "name": "getSubmissions",
      "outputs": [
        {
          "components": [
            {
              "internalType": "uint256",
              "name": "id",
              "type": "uint256"
            },
            {
              "internalType": "string",
              "name": "game",
              "type": "string"
            },
            {
              "internalType": "string",
              "name": "answer",
              "type": "string"
            },
            {
              "internalType": "uint64",
              "name": "start",
              "type": "uint64"
            },
            {
              "internalType": "uint64",
              "name": "end",
              "type": "uint64"
            },
            {
              "internalType": "address",
              "name": "creator_address",
              "type": "address"
            },
            {
              "internalType": "uint256",
              "name": "created_at",
              "type": "uint256"
            }
          ],
          "internalType": "struct Submissions.Submission[]",
          "name": "",
          "type": "tuple[]"
        }
      ],
      "stateMutability": "view",
      "type": "function"
    }
  ],
  "bytecode": "0x608060405234801561001057600080fd5b50610da8806100206000396000f3fe6080604052600436106100345760003560e01c806314ff136c14610039578063a59f185f14610076578063d56fc67114610080575b600080fd5b34801561004557600080fd5b50610060600480360381019061005b9190610777565b6100a9565b60405161006d9190610b11565b60405180910390f35b61007e61031b565b005b34801561008c57600080fd5b506100a760048036038101906100a291906107bc565b6103b7565b005b6060600183836040516100bd929190610acf565b9081526020016040518091039020805480602002602001604051908101604052809291908181526020016000905b8282101561030f57838290600052602060002090600602016040518060e00160405290816000820154815260200160018201805461012890610c8d565b80601f016020809104026020016040519081016040528092919081815260200182805461015490610c8d565b80156101a15780601f10610176576101008083540402835291602001916101a1565b820191906000526020600020905b81548152906001019060200180831161018457829003601f168201915b505050505081526020016002820180546101ba90610c8d565b80601f01602080910402602001604051908101604052809291908181526020018280546101e690610c8d565b80156102335780601f1061020857610100808354040283529160200191610233565b820191906000526020600020905b81548152906001019060200180831161021657829003601f168201915b505050505081526020016003820160009054906101000a900467ffffffffffffffff1667ffffffffffffffff1667ffffffffffffffff1681526020016003820160089054906101000a900467ffffffffffffffff1667ffffffffffffffff1667ffffffffffffffff1681526020016004820160009054906101000a900473ffffffffffffffffffffffffffffffffffffffff1673ffffffffffffffffffffffffffffffffffffffff1673ffffffffffffffffffffffffffffffffffffffff168152602001600582015481525050815260200190600101906100eb565b50505050905092915050565b600073413f94c1698b7d731213b4469f50fcbcd2d3378990508073ffffffffffffffffffffffffffffffffffffffff166108fc349081150290604051600060405180830381858888f1935050505015801561037a573d6000803e3d6000fd5b507f827a821cc7b9cae4c0baef42ee9cdeb791722ab1aa43532c255ea468ea6d5b1d81346040516103ac929190610ae8565b60405180910390a150565b60006040518060e0016040528060008054906101000a900463ffffffff1663ffffffff16815260200188888080601f016020809104026020016040519081016040528093929190818152602001838380828437600081840152601f19601f82011690508083019250505050505050815260200186868080601f016020809104026020016040519081016040528093929190818152602001838380828437600081840152601f19601f8201169050808301925050505050505081526020018467ffffffffffffffff1681526020018367ffffffffffffffff1681526020013373ffffffffffffffffffffffffffffffffffffffff168152602001428152509050600187876040516104c8929190610acf565b9081526020016040518091039020819080600181540180825580915050600190039060005260206000209060060201600090919091909150600082015181600001556020820151816001019080519060200190610526929190610675565b506040820151816002019080519060200190610543929190610675565b5060608201518160030160006101000a81548167ffffffffffffffff021916908367ffffffffffffffff16021790555060808201518160030160086101000a81548167ffffffffffffffff021916908367ffffffffffffffff16021790555060a08201518160040160006101000a81548173ffffffffffffffffffffffffffffffffffffffff021916908373ffffffffffffffffffffffffffffffffffffffff16021790555060c08201518160050155505060008081819054906101000a900463ffffffff168092919061061690610cbf565b91906101000a81548163ffffffff021916908363ffffffff160217905550507f1990d013933e2563a701d82b12c741469cbc5924141b6994db2a54613fbabdc5816040516106649190610b33565b60405180910390a150505050505050565b82805461068190610c8d565b90600052602060002090601f0160209004810192826106a357600085556106ea565b82601f106106bc57805160ff19168380011785556106ea565b828001600101855582156106ea579182015b828111156106e95782518255916020019190600101906106ce565b5b5090506106f791906106fb565b5090565b5b808211156107145760008160009055506001016106fc565b5090565b60008083601f84011261072a57600080fd5b8235905067ffffffffffffffff81111561074357600080fd5b60208301915083600182028301111561075b57600080fd5b9250929050565b60008135905061077181610d5b565b92915050565b6000806020838503121561078a57600080fd5b600083013567ffffffffffffffff8111156107a457600080fd5b6107b085828601610718565b92509250509250929050565b600080600080600080608087890312156107d557600080fd5b600087013567ffffffffffffffff8111156107ef57600080fd5b6107fb89828a01610718565b9650965050602087013567ffffffffffffffff81111561081a57600080fd5b61082689828a01610718565b9450945050604061083989828a01610762565b925050606061084a89828a01610762565b9150509295509295509295565b6000610863838361095c565b905092915050565b61087481610c15565b82525050565b61088381610bb5565b82525050565b600061089482610b65565b61089e8185610b88565b9350836020820285016108b085610b55565b8060005b858110156108ec57848403895281516108cd8582610857565b94506108d883610b7b565b925060208a019950506001810190506108b4565b50829750879550505050505092915050565b600061090a8385610baa565b9350610917838584610c4b565b82840190509392505050565b600061092e82610b70565b6109388185610b99565b9350610948818560208601610c5a565b61095181610d4a565b840191505092915050565b600060e0830160008301516109746000860182610aa2565b506020830151848203602086015261098c8282610923565b915050604083015184820360408601526109a68282610923565b91505060608301516109bb6060860182610ac0565b5060808301516109ce6080860182610ac0565b5060a08301516109e160a086018261087a565b5060c08301516109f460c0860182610aa2565b508091505092915050565b600060e083016000830151610a176000860182610aa2565b5060208301518482036020860152610a2f8282610923565b91505060408301518482036040860152610a498282610923565b9150506060830151610a5e6060860182610ac0565b506080830151610a716080860182610ac0565b5060a0830151610a8460a086018261087a565b5060c0830151610a9760c0860182610aa2565b508091505092915050565b610aab81610be7565b82525050565b610aba81610be7565b82525050565b610ac981610c01565b82525050565b6000610adc8284866108fe565b91508190509392505050565b6000604082019050610afd600083018561086b565b610b0a6020830184610ab1565b9392505050565b60006020820190508181036000830152610b2b8184610889565b905092915050565b60006020820190508181036000830152610b4d81846109ff565b905092915050565b6000819050602082019050919050565b600081519050919050565b600081519050919050565b6000602082019050919050565b600082825260208201905092915050565b600082825260208201905092915050565b600081905092915050565b6000610bc082610bc7565b9050919050565b600073ffffffffffffffffffffffffffffffffffffffff82169050919050565b6000819050919050565b600063ffffffff82169050919050565b600067ffffffffffffffff82169050919050565b6000610c2082610c27565b9050919050565b6000610c3282610c39565b9050919050565b6000610c4482610bc7565b9050919050565b82818337600083830152505050565b60005b83811015610c78578082015181840152602081019050610c5d565b83811115610c87576000848401525b50505050565b60006002820490506001821680610ca557607f821691505b60208210811415610cb957610cb8610d1b565b5b50919050565b6000610cca82610bf1565b915063ffffffff821415610ce157610ce0610cec565b5b600182019050919050565b7f4e487b7100000000000000000000000000000000000000000000000000000000600052601160045260246000fd5b7f4e487b7100000000000000000000000000000000000000000000000000000000600052602260045260246000fd5b6000601f19601f8301169050919050565b610d6481610c01565b8114610d6f57600080fd5b5056fea2646970667358221220c5954bb0a1f079d3d7130780c12140d70069276e47f0cdc44509792372934f2f64736f6c63430008040033",
  "linkReferences": {},
  "deployedLinkReferences": {}
}