{
  "_format": "hh-sol-artifact-1",
  "contractName": "Submissions",
  "sourceName": "contracts/Submissions.sol",
  "abi": [
    {
      "anonymous": false,
      "inputs": [
        {
          "components": [
            {
              "internalType": "uint256",
              "name": "id",
              "type": "uint256"
            },
            {
              "internalType": "string",
              "name": "game",
              "type": "string"
            },
            {
              "internalType": "uint64",
              "name": "start",
              "type": "uint64"
            },
            {
              "internalType": "uint64",
              "name": "end",
              "type": "uint64"
            },
            {
              "internalType": "address",
              "name": "creator_address",
              "type": "address"
            },
            {
              "internalType": "uint256",
              "name": "created_at",
              "type": "uint256"
            }
          ],
          "indexed": false,
          "internalType": "struct Submissions.Submission",
          "name": "submission",
          "type": "tuple"
        }
      ],
      "name": "SubmissionAdded",
      "type": "event"
    },
    {
      "inputs": [
        {
          "internalType": "string",
          "name": "game",
          "type": "string"
        },
        {
          "internalType": "uint64",
          "name": "start",
          "type": "uint64"
        },
        {
          "internalType": "uint64",
          "name": "end",
          "type": "uint64"
        }
      ],
      "name": "addSubmission",
      "outputs": [],
      "stateMutability": "nonpayable",
      "type": "function"
    },
    {
      "inputs": [
        {
          "internalType": "string",
          "name": "game",
          "type": "string"
        }
      ],
      "name": "getSubmissions",
      "outputs": [
        {
          "components": [
            {
              "internalType": "uint256",
              "name": "id",
              "type": "uint256"
            },
            {
              "internalType": "string",
              "name": "game",
              "type": "string"
            },
            {
              "internalType": "uint64",
              "name": "start",
              "type": "uint64"
            },
            {
              "internalType": "uint64",
              "name": "end",
              "type": "uint64"
            },
            {
              "internalType": "address",
              "name": "creator_address",
              "type": "address"
            },
            {
              "internalType": "uint256",
              "name": "created_at",
              "type": "uint256"
            }
          ],
          "internalType": "struct Submissions.Submission[]",
          "name": "",
          "type": "tuple[]"
        }
      ],
      "stateMutability": "view",
      "type": "function"
    }
  ],
  "bytecode": "0x608060405234801561001057600080fd5b50610b0f806100206000396000f3fe608060405234801561001057600080fd5b50600436106100365760003560e01c806314ff136c1461003b578063e649a20e1461006b575b600080fd5b610055600480360381019061005091906105be565b610087565b60405161006291906108ae565b60405180910390f35b61008560048036038101906100809190610603565b610267565b005b60606001838360405161009b929190610895565b9081526020016040518091039020805480602002602001604051908101604052809291908181526020016000905b8282101561025b57838290600052602060002090600502016040518060c001604052908160008201548152602001600182018054610106906109f4565b80601f0160208091040260200160405190810160405280929190818152602001828054610132906109f4565b801561017f5780601f106101545761010080835404028352916020019161017f565b820191906000526020600020905b81548152906001019060200180831161016257829003601f168201915b505050505081526020016002820160009054906101000a900467ffffffffffffffff1667ffffffffffffffff1667ffffffffffffffff1681526020016002820160089054906101000a900467ffffffffffffffff1667ffffffffffffffff1667ffffffffffffffff1681526020016003820160009054906101000a900473ffffffffffffffffffffffffffffffffffffffff1673ffffffffffffffffffffffffffffffffffffffff1673ffffffffffffffffffffffffffffffffffffffff168152602001600482015481525050815260200190600101906100c9565b50505050905092915050565b60006040518060c0016040528060008054906101000a900463ffffffff1663ffffffff16815260200186868080601f016020809104026020016040519081016040528093929190818152602001838380828437600081840152601f19601f8201169050808301925050505050505081526020018467ffffffffffffffff1681526020018367ffffffffffffffff1681526020013373ffffffffffffffffffffffffffffffffffffffff1681526020014281525090506001858560405161032e929190610895565b908152602001604051809103902081908060018154018082558091505060019003906000526020600020906005020160009091909190915060008201518160000155602082015181600101908051906020019061038c9291906104bc565b5060408201518160020160006101000a81548167ffffffffffffffff021916908367ffffffffffffffff16021790555060608201518160020160086101000a81548167ffffffffffffffff021916908367ffffffffffffffff16021790555060808201518160030160006101000a81548173ffffffffffffffffffffffffffffffffffffffff021916908373ffffffffffffffffffffffffffffffffffffffff16021790555060a08201518160040155505060008081819054906101000a900463ffffffff168092919061045f90610a26565b91906101000a81548163ffffffff021916908363ffffffff160217905550507f6a3a8b05a519d9b138b2956402dab34f73c28178ec07ba6188b7ec17b8ab705e816040516104ad91906108d0565b60405180910390a15050505050565b8280546104c8906109f4565b90600052602060002090601f0160209004810192826104ea5760008555610531565b82601f1061050357805160ff1916838001178555610531565b82800160010185558215610531579182015b82811115610530578251825591602001919060010190610515565b5b50905061053e9190610542565b5090565b5b8082111561055b576000816000905550600101610543565b5090565b60008083601f84011261057157600080fd5b8235905067ffffffffffffffff81111561058a57600080fd5b6020830191508360018202830111156105a257600080fd5b9250929050565b6000813590506105b881610ac2565b92915050565b600080602083850312156105d157600080fd5b600083013567ffffffffffffffff8111156105eb57600080fd5b6105f78582860161055f565b92509250509250929050565b6000806000806060858703121561061957600080fd5b600085013567ffffffffffffffff81111561063357600080fd5b61063f8782880161055f565b94509450506020610652878288016105a9565b9250506040610663878288016105a9565b91505092959194509250565b600061067b8383610765565b905092915050565b61068c81610952565b82525050565b600061069d82610902565b6106a78185610925565b9350836020820285016106b9856108f2565b8060005b858110156106f557848403895281516106d6858261066f565b94506106e183610918565b925060208a019950506001810190506106bd565b50829750879550505050505092915050565b60006107138385610947565b93506107208385846109b2565b82840190509392505050565b60006107378261090d565b6107418185610936565b93506107518185602086016109c1565b61075a81610ab1565b840191505092915050565b600060c08301600083015161077d6000860182610877565b5060208301518482036020860152610795828261072c565b91505060408301516107aa6040860182610886565b5060608301516107bd6060860182610886565b5060808301516107d06080860182610683565b5060a08301516107e360a0860182610877565b508091505092915050565b600060c0830160008301516108066000860182610877565b506020830151848203602086015261081e828261072c565b91505060408301516108336040860182610886565b5060608301516108466060860182610886565b5060808301516108596080860182610683565b5060a083015161086c60a0860182610877565b508091505092915050565b61088081610984565b82525050565b61088f8161099e565b82525050565b60006108a2828486610707565b91508190509392505050565b600060208201905081810360008301526108c88184610692565b905092915050565b600060208201905081810360008301526108ea81846107ee565b905092915050565b6000819050602082019050919050565b600081519050919050565b600081519050919050565b6000602082019050919050565b600082825260208201905092915050565b600082825260208201905092915050565b600081905092915050565b600061095d82610964565b9050919050565b600073ffffffffffffffffffffffffffffffffffffffff82169050919050565b6000819050919050565b600063ffffffff82169050919050565b600067ffffffffffffffff82169050919050565b82818337600083830152505050565b60005b838110156109df5780820151818401526020810190506109c4565b838111156109ee576000848401525b50505050565b60006002820490506001821680610a0c57607f821691505b60208210811415610a2057610a1f610a82565b5b50919050565b6000610a318261098e565b915063ffffffff821415610a4857610a47610a53565b5b600182019050919050565b7f4e487b7100000000000000000000000000000000000000000000000000000000600052601160045260246000fd5b7f4e487b7100000000000000000000000000000000000000000000000000000000600052602260045260246000fd5b6000601f19601f8301169050919050565b610acb8161099e565b8114610ad657600080fd5b5056fea2646970667358221220351f0e353b1ea1c1ca763269f1563586e137246be863edc0d3476e55c2f8194a64736f6c63430008040033",
  "linkReferences": {},
  "deployedLinkReferences": {}
}